:020000040000FA
:02000000742862
:100008007E148031200010101D08F0007008F200E6
:100018009D013230890B0E28003220008C191528DA
:1000280018283E0011151A283E001111733072026B
:10003800031C1F2820283B28200091182428252845
:100048003B2875087604031D2A282B2846287308A0
:1000580074040319302831283B28E4307306023031
:1000680003197406031D39283A2846283B283E0000
:10007800901320000C11E430F5000230F600F30173
:10008800F40146287508760403194B284C285A2889
:100098000C0E890C0139F000F1017008F3077108A2
:1000A800F43D0130F5020030F63B7128013074024E
:1000B800723003197302031C622865283E0011146C
:1000C80067283E001110901720000C15E430F50049
:1000D8000230F600F301F401712891107E10090036
:1000E80075288031CD208031F5008031CE208031D7
:1000F800F600F301F4017E102000822820008C0114
:10010800283021008C0023008C0129009F019D01CB
:1001180051309C00EB309B0080309E0009302D0050
:100128009200683097000130980002303C00980037
:1001380008303D0090000930910084302D00950072
:1001480005303C00A8000330A9003E0092010130B0
:1001580093000230960097010830980099019101A8
:1001680004303D00940081303E00900003303C0094
:1001780090008B3020009E002100911420009D01EA
:1001880005309F00D0308B00013021009000CB2833
:060198007428E434023477
:020000040001F9
:08000E008CFFF0F5FFDFFFFF9E
:00000001FF
